{
  "abi": [
    {
      "anonymous": false,
      "inputs": [
        {
          "indexed": true,
          "internalType": "address",
          "name": "owner",
          "type": "address"
        },
        {
          "indexed": true,
          "internalType": "address",
          "name": "spender",
          "type": "address"
        },
        {
          "indexed": false,
          "internalType": "uint256",
          "name": "amount",
          "type": "uint256"
        }
      ],
      "name": "Approval",
      "type": "event"
    },
    {
      "anonymous": false,
      "inputs": [
        {
          "indexed": true,
          "internalType": "address",
          "name": "from",
          "type": "address"
        },
        {
          "indexed": true,
          "internalType": "address",
          "name": "to",
          "type": "address"
        },
        {
          "indexed": false,
          "internalType": "uint256",
          "name": "amount",
          "type": "uint256"
        }
      ],
      "name": "Transfer",
      "type": "event"
    },
    {
      "inputs": [
        {
          "internalType": "address",
          "name": "",
          "type": "address"
        },
        {
          "internalType": "address",
          "name": "",
          "type": "address"
        }
      ],
      "name": "allowance",
      "outputs": [
        {
          "internalType": "uint256",
          "name": "",
          "type": "uint256"
        }
      ],
      "stateMutability": "view",
      "type": "function"
    },
    {
      "inputs": [
        {
          "internalType": "address",
          "name": "spender",
          "type": "address"
        },
        {
          "internalType": "uint256",
          "name": "amount",
          "type": "uint256"
        }
      ],
      "name": "approve",
      "outputs": [
        {
          "internalType": "bool",
          "name": "",
          "type": "bool"
        }
      ],
      "stateMutability": "nonpayable",
      "type": "function"
    },
    {
      "inputs": [
        {
          "internalType": "address",
          "name": "",
          "type": "address"
        }
      ],
      "name": "balanceOf",
      "outputs": [
        {
          "internalType": "uint256",
          "name": "",
          "type": "uint256"
        }
      ],
      "stateMutability": "view",
      "type": "function"
    },
    {
      "inputs": [
        {
          "internalType": "address",
          "name": "from",
          "type": "address"
        },
        {
          "internalType": "uint256",
          "name": "amount",
          "type": "uint256"
        }
      ],
      "name": "burn",
      "outputs": [],
      "stateMutability": "nonpayable",
      "type": "function"
    },
    {
      "inputs": [
        {
          "internalType": "address",
          "name": "to",
          "type": "address"
        },
        {
          "internalType": "uint256",
          "name": "amount",
          "type": "uint256"
        }
      ],
      "name": "mint",
      "outputs": [],
      "stateMutability": "nonpayable",
      "type": "function"
    },
    {
      "inputs": [
        {
          "internalType": "address",
          "name": "",
          "type": "address"
        }
      ],
      "name": "nonces",
      "outputs": [
        {
          "internalType": "uint256",
          "name": "",
          "type": "uint256"
        }
      ],
      "stateMutability": "view",
      "type": "function"
    },
    {
      "inputs": [],
      "name": "totalSupply",
      "outputs": [
        {
          "internalType": "uint256",
          "name": "",
          "type": "uint256"
        }
      ],
      "stateMutability": "view",
      "type": "function"
    },
    {
      "inputs": [
        {
          "internalType": "address",
          "name": "to",
          "type": "address"
        },
        {
          "internalType": "uint256",
          "name": "amount",
          "type": "uint256"
        }
      ],
      "name": "transfer",
      "outputs": [
        {
          "internalType": "bool",
          "name": "",
          "type": "bool"
        }
      ],
      "stateMutability": "nonpayable",
      "type": "function"
    },
    {
      "inputs": [
        {
          "internalType": "address",
          "name": "from",
          "type": "address"
        },
        {
          "internalType": "address",
          "name": "to",
          "type": "address"
        },
        {
          "internalType": "uint256",
          "name": "amount",
          "type": "uint256"
        }
      ],
      "name": "transferFrom",
      "outputs": [
        {
          "internalType": "bool",
          "name": "",
          "type": "bool"
        }
      ],
      "stateMutability": "nonpayable",
      "type": "function"
    }
  ],
  "bytecode": {
    "object": "0x608060405234801561001057600080fd5b50610584806100206000396000f3fe608060405234801561001057600080fd5b50600436106100935760003560e01c806370a082311161006657806370a08231146100ff5780637ecebe001461011f5780639dc29fac1461013f578063a9059cbb14610152578063dd62ed3e1461016557600080fd5b8063095ea7b31461009857806318160ddd146100c057806323b872dd146100d757806340c10f19146100ea575b600080fd5b6100ab6100a63660046104bf565b610190565b60405190151581526020015b60405180910390f35b6100c960005481565b6040519081526020016100b7565b6100ab6100e5366004610483565b6101fc565b6100fd6100f83660046104bf565b6102dc565b005b6100c961010d36600461042e565b60016020526000908152604090205481565b6100c961012d36600461042e565b60036020526000908152604090205481565b6100fd61014d3660046104bf565b6102ea565b6100ab6101603660046104bf565b6102f4565b6100c9610173366004610450565b600260209081526000928352604080842090915290825290205481565b3360008181526002602090815260408083206001600160a01b038716808552925280832085905551919290917f8c5be1e5ebec7d5bd14f71427d1e84f3dd0314c0f7b2291e5b200ac8c7c3b925906101eb9086815260200190565b60405180910390a350600192915050565b6001600160a01b03831660009081526002602090815260408083203384529091528120546000198114610258576102338382610501565b6001600160a01b03861660009081526002602090815260408083203384529091529020555b6001600160a01b03851660009081526001602052604081208054859290610280908490610501565b90915550506001600160a01b038085166000818152600160205260409081902080548701905551909187169060008051602061052f833981519152906102c99087815260200190565b60405180910390a3506001949350505050565b6102e6828261035a565b5050565b6102e682826103b3565b33600090815260016020526040812080548391908390610315908490610501565b90915550506001600160a01b0383166000818152600160205260409081902080548501905551339060008051602061052f833981519152906101eb9086815260200190565b8060008082825461036b91906104e9565b90915550506001600160a01b03821660008181526001602090815260408083208054860190555184815260008051602061052f83398151915291015b60405180910390a35050565b6001600160a01b038216600090815260016020526040812080548392906103db908490610501565b90915550506000805482900381556040518281526001600160a01b0384169060008051602061052f833981519152906020016103a7565b80356001600160a01b038116811461042957600080fd5b919050565b60006020828403121561044057600080fd5b61044982610412565b9392505050565b6000806040838503121561046357600080fd5b61046c83610412565b915061047a60208401610412565b90509250929050565b60008060006060848603121561049857600080fd5b6104a184610412565b92506104af60208501610412565b9150604084013590509250925092565b600080604083850312156104d257600080fd5b6104db83610412565b946020939093013593505050565b600082198211156104fc576104fc610518565b500190565b60008282101561051357610513610518565b500390565b634e487b7160e01b600052601160045260246000fdfeddf252ad1be2c89b69c2b068fc378daa952ba7f163c4a11628f55a4df523b3efa2646970667358221220143672a30ebc6001b4faebc4ccb806b4598f715eae58b5cbfd88822155418c4a64736f6c63430008070033",
    "linkReferences": {}
  }
}