{
  "abi": [
    {
      "inputs": [
        {
          "internalType": "string",
          "name": "_baseURI",
          "type": "string"
        }
      ],
      "stateMutability": "nonpayable",
      "type": "constructor"
    },
    {
      "anonymous": false,
      "inputs": [
        {
          "indexed": true,
          "internalType": "address",
          "name": "account",
          "type": "address"
        },
        {
          "indexed": true,
          "internalType": "address",
          "name": "operator",
          "type": "address"
        },
        {
          "indexed": false,
          "internalType": "bool",
          "name": "approved",
          "type": "bool"
        }
      ],
      "name": "ApprovalForAll",
      "type": "event"
    },
    {
      "anonymous": false,
      "inputs": [
        {
          "indexed": true,
          "internalType": "address",
          "name": "previousOwner",
          "type": "address"
        },
        {
          "indexed": true,
          "internalType": "address",
          "name": "newOwner",
          "type": "address"
        }
      ],
      "name": "OwnershipTransferred",
      "type": "event"
    },
    {
      "anonymous": false,
      "inputs": [
        {
          "indexed": true,
          "internalType": "string",
          "name": "_baseURI",
          "type": "string"
        }
      ],
      "name": "SetBaseURI",
      "type": "event"
    },
    {
      "anonymous": false,
      "inputs": [
        {
          "indexed": true,
          "internalType": "address",
          "name": "operator",
          "type": "address"
        },
        {
          "indexed": true,
          "internalType": "address",
          "name": "from",
          "type": "address"
        },
        {
          "indexed": true,
          "internalType": "address",
          "name": "to",
          "type": "address"
        },
        {
          "indexed": false,
          "internalType": "uint256[]",
          "name": "ids",
          "type": "uint256[]"
        },
        {
          "indexed": false,
          "internalType": "uint256[]",
          "name": "values",
          "type": "uint256[]"
        }
      ],
      "name": "TransferBatch",
      "type": "event"
    },
    {
      "anonymous": false,
      "inputs": [
        {
          "indexed": true,
          "internalType": "address",
          "name": "operator",
          "type": "address"
        },
        {
          "indexed": true,
          "internalType": "address",
          "name": "from",
          "type": "address"
        },
        {
          "indexed": true,
          "internalType": "address",
          "name": "to",
          "type": "address"
        },
        {
          "indexed": false,
          "internalType": "uint256",
          "name": "id",
          "type": "uint256"
        },
        {
          "indexed": false,
          "internalType": "uint256",
          "name": "value",
          "type": "uint256"
        }
      ],
      "name": "TransferSingle",
      "type": "event"
    },
    {
      "anonymous": false,
      "inputs": [
        {
          "indexed": false,
          "internalType": "string",
          "name": "value",
          "type": "string"
        },
        {
          "indexed": true,
          "internalType": "uint256",
          "name": "id",
          "type": "uint256"
        }
      ],
      "name": "URI",
      "type": "event"
    },
    {
      "inputs": [
        {
          "internalType": "address",
          "name": "account",
          "type": "address"
        },
        {
          "internalType": "uint256",
          "name": "id",
          "type": "uint256"
        }
      ],
      "name": "balanceOf",
      "outputs": [
        {
          "internalType": "uint256",
          "name": "",
          "type": "uint256"
        }
      ],
      "stateMutability": "view",
      "type": "function"
    },
    {
      "inputs": [
        {
          "internalType": "address[]",
          "name": "accounts",
          "type": "address[]"
        },
        {
          "internalType": "uint256[]",
          "name": "ids",
          "type": "uint256[]"
        }
      ],
      "name": "balanceOfBatch",
      "outputs": [
        {
          "internalType": "uint256[]",
          "name": "",
          "type": "uint256[]"
        }
      ],
      "stateMutability": "view",
      "type": "function"
    },
    {
      "inputs": [
        {
          "internalType": "address",
          "name": "account",
          "type": "address"
        },
        {
          "internalType": "address",
          "name": "operator",
          "type": "address"
        }
      ],
      "name": "isApprovedForAll",
      "outputs": [
        {
          "internalType": "bool",
          "name": "",
          "type": "bool"
        }
      ],
      "stateMutability": "view",
      "type": "function"
    },
    {
      "inputs": [
        {
          "internalType": "uint256[]",
          "name": "ids",
          "type": "uint256[]"
        },
        {
          "internalType": "uint256[]",
          "name": "amounts",
          "type": "uint256[]"
        }
      ],
      "name": "mintBatch",
      "outputs": [],
      "stateMutability": "nonpayable",
      "type": "function"
    },
    {
      "inputs": [],
      "name": "owner",
      "outputs": [
        {
          "internalType": "address",
          "name": "",
          "type": "address"
        }
      ],
      "stateMutability": "view",
      "type": "function"
    },
    {
      "inputs": [],
      "name": "renounceOwnership",
      "outputs": [],
      "stateMutability": "nonpayable",
      "type": "function"
    },
    {
      "inputs": [
        {
          "internalType": "address",
          "name": "from",
          "type": "address"
        },
        {
          "internalType": "address",
          "name": "to",
          "type": "address"
        },
        {
          "internalType": "uint256[]",
          "name": "ids",
          "type": "uint256[]"
        },
        {
          "internalType": "uint256[]",
          "name": "amounts",
          "type": "uint256[]"
        },
        {
          "internalType": "bytes",
          "name": "data",
          "type": "bytes"
        }
      ],
      "name": "safeBatchTransferFrom",
      "outputs": [],
      "stateMutability": "nonpayable",
      "type": "function"
    },
    {
      "inputs": [
        {
          "internalType": "address",
          "name": "from",
          "type": "address"
        },
        {
          "internalType": "address",
          "name": "to",
          "type": "address"
        },
        {
          "internalType": "uint256",
          "name": "id",
          "type": "uint256"
        },
        {
          "internalType": "uint256",
          "name": "amount",
          "type": "uint256"
        },
        {
          "internalType": "bytes",
          "name": "data",
          "type": "bytes"
        }
      ],
      "name": "safeTransferFrom",
      "outputs": [],
      "stateMutability": "nonpayable",
      "type": "function"
    },
    {
      "inputs": [
        {
          "internalType": "address",
          "name": "operator",
          "type": "address"
        },
        {
          "internalType": "bool",
          "name": "approved",
          "type": "bool"
        }
      ],
      "name": "setApprovalForAll",
      "outputs": [],
      "stateMutability": "nonpayable",
      "type": "function"
    },
    {
      "inputs": [
        {
          "internalType": "bytes4",
          "name": "interfaceId",
          "type": "bytes4"
        }
      ],
      "name": "supportsInterface",
      "outputs": [
        {
          "internalType": "bool",
          "name": "",
          "type": "bool"
        }
      ],
      "stateMutability": "view",
      "type": "function"
    },
    {
      "inputs": [
        {
          "internalType": "address",
          "name": "newOwner",
          "type": "address"
        }
      ],
      "name": "transferOwnership",
      "outputs": [],
      "stateMutability": "nonpayable",
      "type": "function"
    },
    {
      "inputs": [
        {
          "internalType": "string",
          "name": "_baseURI",
          "type": "string"
        }
      ],
      "name": "updateBaseUri",
      "outputs": [],
      "stateMutability": "nonpayable",
      "type": "function"
    },
    {
      "inputs": [
        {
          "internalType": "uint256",
          "name": "typeId",
          "type": "uint256"
        }
      ],
      "name": "uri",
      "outputs": [
        {
          "internalType": "string",
          "name": "",
          "type": "string"
        }
      ],
      "stateMutability": "view",
      "type": "function"
    }
  ],
  "bytecode": {
    "object": "0x60806040523480156200001157600080fd5b50604051620020ba380380620020ba833981016040819052620000349162000220565b8062000040816200010f565b506200004c3362000128565b8051620000619060049060208401906200017a565b5060056020527f05b8ccbb9d4d8fb16ea74ce3c29a41f1b461fbdaff4714a0d9a8eb05499746bc8054600160ff19918216811790925560008290527f1471eb6eb2c5e789fc3de43f8ce62938c7d1836ec861730447e2ada8fd81017b80549091169091179055604051620000d890600490620002fc565b604051908190038120907f23c8c9488efebfd474e85a7956de6f39b17c7ab88502d42a623db2d8e382bbaa90600090a250620003f3565b8051620001249060029060208401906200017a565b5050565b600380546001600160a01b038381166001600160a01b0319831681179093556040519116919082907f8be0079c531659141344cd1fd0a4f28419497f9722a3daafe3b4186f6b6457e090600090a35050565b8280546200018890620003a0565b90600052602060002090601f016020900481019282620001ac5760008555620001f7565b82601f10620001c757805160ff1916838001178555620001f7565b82800160010185558215620001f7579182015b82811115620001f7578251825591602001919060010190620001da565b506200020592915062000209565b5090565b5b808211156200020557600081556001016200020a565b600060208083850312156200023457600080fd5b82516001600160401b03808211156200024c57600080fd5b818501915085601f8301126200026157600080fd5b815181811115620002765762000276620003dd565b604051601f8201601f19908116603f01168101908382118183101715620002a157620002a1620003dd565b816040528281528886848701011115620002ba57600080fd5b600093505b82841015620002de5784840186015181850187015292850192620002bf565b82841115620002f05760008684830101525b98975050505050505050565b600080835481600182811c9150808316806200031957607f831692505b60208084108214156200033a57634e487b7160e01b86526022600452602486fd5b818015620003515760018114620003635762000392565b60ff1986168952848901965062000392565b60008a81526020902060005b868110156200038a5781548b8201529085019083016200036f565b505084890196505b509498975050505050505050565b600181811c90821680620003b557607f821691505b60208210811415620003d757634e487b7160e01b600052602260045260246000fd5b50919050565b634e487b7160e01b600052604160045260246000fd5b611cb780620004036000396000f3fe608060405234801561001057600080fd5b50600436106100ce5760003560e01c8063715018a61161008c578063d351cfdc11610066578063d351cfdc146101ba578063e985e9c5146101cd578063f242432a14610209578063f2fde38b1461021c57600080fd5b8063715018a6146101845780638da5cb5b1461018c578063a22cb465146101a757600080fd5b8062fdd58e146100d357806301ffc9a7146100f95780630e89341c1461011c5780632eb2c2d61461013c57806339f7e37f146101515780634e1273f414610164575b600080fd5b6100e66100e13660046114de565b61022f565b6040519081526020015b60405180910390f35b61010c610107366004611626565b6102c6565b60405190151581526020016100f0565b61012f61012a3660046116a9565b610318565b6040516100f091906118d8565b61014f61014a366004611393565b6103f1565b005b61014f61015f366004611660565b610488565b610177610172366004611508565b610508565b6040516100f09190611897565b61014f610632565b6003546040516001600160a01b0390911681526020016100f0565b61014f6101b53660046114a2565b610668565b61014f6101c83660046115d9565b610677565b61010c6101db366004611360565b6001600160a01b03918216600090815260016020908152604080832093909416825291909152205460ff1690565b61014f61021736600461143d565b610765565b61014f61022a366004611345565b6107ec565b60006001600160a01b0383166102a05760405162461bcd60e51b815260206004820152602b60248201527f455243313135353a2062616c616e636520717565727920666f7220746865207a60448201526a65726f206164647265737360a81b60648201526084015b60405180910390fd5b506000908152602081815260408083206001600160a01b03949094168352929052205490565b60006001600160e01b03198216636cdb3d1360e11b14806102f757506001600160e01b031982166303a24d0760e21b145b8061031257506301ffc9a760e01b6001600160e01b03198316145b92915050565b606060006004805461032990611ad6565b9050116103c0576004805461033d90611ad6565b80601f016020809104026020016040519081016040528092919081815260200182805461036990611ad6565b80156103b65780601f1061038b576101008083540402835291602001916103b6565b820191906000526020600020905b81548152906001019060200180831161039957829003601f168201915b5050505050610312565b60046103cb83610887565b6040516020016103dc9291906117cf565b60405160208183030381529060405292915050565b6001600160a01b03851633148061040d575061040d85336101db565b6104745760405162461bcd60e51b815260206004820152603260248201527f455243313135353a207472616e736665722063616c6c6572206973206e6f74206044820152711bdddb995c881b9bdc88185c1c1c9bdd995960721b6064820152608401610297565b610481858585858561098d565b5050505050565b6003546001600160a01b031633146104b25760405162461bcd60e51b8152600401610297906119c2565b80516104c5906004906020840190611194565b5060046040516104d591906117c3565b604051908190038120907f23c8c9488efebfd474e85a7956de6f39b17c7ab88502d42a623db2d8e382bbaa90600090a250565b6060815183511461056d5760405162461bcd60e51b815260206004820152602960248201527f455243313135353a206163636f756e747320616e6420696473206c656e677468604482015268040dad2e6dac2e8c6d60bb1b6064820152608401610297565b6000835167ffffffffffffffff81111561058957610589611baf565b6040519080825280602002602001820160405280156105b2578160200160208202803683370190505b50905060005b845181101561062a576105fd8582815181106105d6576105d6611b99565b60200260200101518583815181106105f0576105f0611b99565b602002602001015161022f565b82828151811061060f5761060f611b99565b602090810291909101015261062381611b3e565b90506105b8565b509392505050565b6003546001600160a01b0316331461065c5760405162461bcd60e51b8152600401610297906119c2565b6106666000610b29565b565b610673338383610b7b565b5050565b6003546001600160a01b031633146106a15760405162461bcd60e51b8152600401610297906119c2565b815160005b8181101561073357600560008583815181106106c4576106c4611b99565b60209081029190910181015182528101919091526040016000205460ff166107215760405162461bcd60e51b815260206004820152601060248201526f24a2103737ba1030b1b1b2b83a32b21760811b6044820152606401610297565b8061072b81611b3e565b9150506106a6565b506107606107496003546001600160a01b031690565b848460405180602001604052806000815250610c5c565b505050565b6001600160a01b038516331480610781575061078185336101db565b6107df5760405162461bcd60e51b815260206004820152602960248201527f455243313135353a2063616c6c6572206973206e6f74206f776e6572206e6f7260448201526808185c1c1c9bdd995960ba1b6064820152608401610297565b6104818585858585610de1565b6003546001600160a01b031633146108165760405162461bcd60e51b8152600401610297906119c2565b6001600160a01b03811661087b5760405162461bcd60e51b815260206004820152602660248201527f4f776e61626c653a206e6577206f776e657220697320746865207a65726f206160448201526564647265737360d01b6064820152608401610297565b61088481610b29565b50565b6060816108ab5750506040805180820190915260018152600360fc1b602082015290565b8160005b81156108d557806108bf81611b3e565b91506108ce9050600a83611a7b565b91506108af565b60008167ffffffffffffffff8111156108f0576108f0611baf565b6040519080825280601f01601f19166020018201604052801561091a576020820181803683370190505b5090505b84156109855761092f600183611a8f565b915061093c600a86611b59565b610947906030611a63565b60f81b81838151811061095c5761095c611b99565b60200101906001600160f81b031916908160001a90535061097e600a86611a7b565b945061091e565b949350505050565b81518351146109ae5760405162461bcd60e51b8152600401610297906119f7565b6001600160a01b0384166109d45760405162461bcd60e51b815260040161029790611933565b3360005b8451811015610abb5760008582815181106109f5576109f5611b99565b602002602001015190506000858381518110610a1357610a13611b99565b602090810291909101810151600084815280835260408082206001600160a01b038e168352909352919091205490915081811015610a635760405162461bcd60e51b815260040161029790611978565b6000838152602081815260408083206001600160a01b038e8116855292528083208585039055908b16825281208054849290610aa0908490611a63565b9250508190555050505080610ab490611b3e565b90506109d8565b50846001600160a01b0316866001600160a01b0316826001600160a01b03167f4a39dc06d4c0dbc64b70af90fd698a233a518aa5d07e595d983b8c0526c8f7fb8787604051610b0b9291906118aa565b60405180910390a4610b21818787878787610f0b565b505050505050565b600380546001600160a01b038381166001600160a01b0319831681179093556040519116919082907f8be0079c531659141344cd1fd0a4f28419497f9722a3daafe3b4186f6b6457e090600090a35050565b816001600160a01b0316836001600160a01b03161415610bef5760405162461bcd60e51b815260206004820152602960248201527f455243313135353a2073657474696e6720617070726f76616c20737461747573604482015268103337b91039b2b63360b91b6064820152608401610297565b6001600160a01b03838116600081815260016020908152604080832094871680845294825291829020805460ff191686151590811790915591519182527f17307eab39ab6107e8899845ad3d59bd9653f200f220920489ca2b5937696c31910160405180910390a3505050565b6001600160a01b038416610cbc5760405162461bcd60e51b815260206004820152602160248201527f455243313135353a206d696e7420746f20746865207a65726f206164647265736044820152607360f81b6064820152608401610297565b8151835114610cdd5760405162461bcd60e51b8152600401610297906119f7565b3360005b8451811015610d7957838181518110610cfc57610cfc611b99565b6020026020010151600080878481518110610d1957610d19611b99565b602002602001015181526020019081526020016000206000886001600160a01b03166001600160a01b031681526020019081526020016000206000828254610d619190611a63565b90915550819050610d7181611b3e565b915050610ce1565b50846001600160a01b031660006001600160a01b0316826001600160a01b03167f4a39dc06d4c0dbc64b70af90fd698a233a518aa5d07e595d983b8c0526c8f7fb8787604051610dca9291906118aa565b60405180910390a461048181600087878787610f0b565b6001600160a01b038416610e075760405162461bcd60e51b815260040161029790611933565b336000610e138561107f565b90506000610e208561107f565b90506000868152602081815260408083206001600160a01b038c16845290915290205485811015610e635760405162461bcd60e51b815260040161029790611978565b6000878152602081815260408083206001600160a01b038d8116855292528083208985039055908a16825281208054889290610ea0908490611a63565b909155505060408051888152602081018890526001600160a01b03808b16928c821692918816917fc3d58168c5ae7397731d063d5bbf3d657854427343f4c083240f7aacaa2d0f62910160405180910390a4610f00848a8a8a8a8a6110ca565b505050505050505050565b6001600160a01b0384163b15610b215760405163bc197c8160e01b81526001600160a01b0385169063bc197c8190610f4f90899089908890889088906004016117f4565b602060405180830381600087803b158015610f6957600080fd5b505af1925050508015610f99575060408051601f3d908101601f19168201909252610f9691810190611643565b60015b61104657610fa5611bc5565b806308c379a01415610fdf5750610fba611be1565b80610fc55750610fe1565b8060405162461bcd60e51b815260040161029791906118d8565b505b60405162461bcd60e51b815260206004820152603460248201527f455243313135353a207472616e7366657220746f206e6f6e20455243313135356044820152732932b1b2b4bb32b91034b6b83632b6b2b73a32b960611b6064820152608401610297565b6001600160e01b0319811663bc197c8160e01b146110765760405162461bcd60e51b8152600401610297906118eb565b50505050505050565b604080516001808252818301909252606091600091906020808301908036833701905050905082816000815181106110b9576110b9611b99565b602090810291909101015292915050565b6001600160a01b0384163b15610b215760405163f23a6e6160e01b81526001600160a01b0385169063f23a6e619061110e9089908990889088908890600401611852565b602060405180830381600087803b15801561112857600080fd5b505af1925050508015611158575060408051601f3d908101601f1916820190925261115591810190611643565b60015b61116457610fa5611bc5565b6001600160e01b0319811663f23a6e6160e01b146110765760405162461bcd60e51b8152600401610297906118eb565b8280546111a090611ad6565b90600052602060002090601f0160209004810192826111c25760008555611208565b82601f106111db57805160ff1916838001178555611208565b82800160010185558215611208579182015b828111156112085782518255916020019190600101906111ed565b50611214929150611218565b5090565b5b808211156112145760008155600101611219565b600067ffffffffffffffff83111561124757611247611baf565b60405161125e601f8501601f191660200182611b11565b80915083815284848401111561127357600080fd5b83836020830137600060208583010152509392505050565b80356001600160a01b03811681146112a257600080fd5b919050565b600082601f8301126112b857600080fd5b813560206112c582611a3f565b6040516112d28282611b11565b8381528281019150858301600585901b870184018810156112f257600080fd5b60005b85811015611311578135845292840192908401906001016112f5565b5090979650505050505050565b600082601f83011261132f57600080fd5b61133e8383356020850161122d565b9392505050565b60006020828403121561135757600080fd5b61133e8261128b565b6000806040838503121561137357600080fd5b61137c8361128b565b915061138a6020840161128b565b90509250929050565b600080600080600060a086880312156113ab57600080fd5b6113b48661128b565b94506113c26020870161128b565b9350604086013567ffffffffffffffff808211156113df57600080fd5b6113eb89838a016112a7565b9450606088013591508082111561140157600080fd5b61140d89838a016112a7565b9350608088013591508082111561142357600080fd5b506114308882890161131e565b9150509295509295909350565b600080600080600060a0868803121561145557600080fd5b61145e8661128b565b945061146c6020870161128b565b93506040860135925060608601359150608086013567ffffffffffffffff81111561149657600080fd5b6114308882890161131e565b600080604083850312156114b557600080fd5b6114be8361128b565b9150602083013580151581146114d357600080fd5b809150509250929050565b600080604083850312156114f157600080fd5b6114fa8361128b565b946020939093013593505050565b6000806040838503121561151b57600080fd5b823567ffffffffffffffff8082111561153357600080fd5b818501915085601f83011261154757600080fd5b8135602061155482611a3f565b6040516115618282611b11565b8381528281019150858301600585901b870184018b101561158157600080fd5b600096505b848710156115ab576115978161128b565b835260019690960195918301918301611586565b50965050860135925050808211156115c257600080fd5b506115cf858286016112a7565b9150509250929050565b600080604083850312156115ec57600080fd5b823567ffffffffffffffff8082111561160457600080fd5b611610868387016112a7565b935060208501359150808211156115c257600080fd5b60006020828403121561163857600080fd5b813561133e81611c6b565b60006020828403121561165557600080fd5b815161133e81611c6b565b60006020828403121561167257600080fd5b813567ffffffffffffffff81111561168957600080fd5b8201601f8101841361169a57600080fd5b6109858482356020840161122d565b6000602082840312156116bb57600080fd5b5035919050565b600081518084526020808501945080840160005b838110156116f2578151875295820195908201906001016116d6565b509495945050505050565b60008151808452611715816020860160208601611aa6565b601f01601f19169290920160200192915050565b8054600090600181811c908083168061174357607f831692505b602080841082141561176557634e487b7160e01b600052602260045260246000fd5b818015611779576001811461178a576117b7565b60ff198616895284890196506117b7565b60008881526020902060005b868110156117af5781548b820152908501908301611796565b505084890196505b50505050505092915050565b600061133e8284611729565b60006117db8285611729565b83516117eb818360208801611aa6565b01949350505050565b6001600160a01b0386811682528516602082015260a060408201819052600090611820908301866116c2565b828103606084015261183281866116c2565b9050828103608084015261184681856116fd565b98975050505050505050565b6001600160a01b03868116825285166020820152604081018490526060810183905260a06080820181905260009061188c908301846116fd565b979650505050505050565b60208152600061133e60208301846116c2565b6040815260006118bd60408301856116c2565b82810360208401526118cf81856116c2565b95945050505050565b60208152600061133e60208301846116fd565b60208082526028908201527f455243313135353a204552433131353552656365697665722072656a656374656040820152676420746f6b656e7360c01b606082015260800190565b60208082526025908201527f455243313135353a207472616e7366657220746f20746865207a65726f206164604082015264647265737360d81b606082015260800190565b6020808252602a908201527f455243313135353a20696e73756666696369656e742062616c616e636520666f60408201526939103a3930b739b332b960b11b606082015260800190565b6020808252818101527f4f776e61626c653a2063616c6c6572206973206e6f7420746865206f776e6572604082015260600190565b60208082526028908201527f455243313135353a2069647320616e6420616d6f756e7473206c656e677468206040820152670dad2e6dac2e8c6d60c31b606082015260800190565b600067ffffffffffffffff821115611a5957611a59611baf565b5060051b60200190565b60008219821115611a7657611a76611b6d565b500190565b600082611a8a57611a8a611b83565b500490565b600082821015611aa157611aa1611b6d565b500390565b60005b83811015611ac1578181015183820152602001611aa9565b83811115611ad0576000848401525b50505050565b600181811c90821680611aea57607f821691505b60208210811415611b0b57634e487b7160e01b600052602260045260246000fd5b50919050565b601f8201601f1916810167ffffffffffffffff81118282101715611b3757611b37611baf565b6040525050565b6000600019821415611b5257611b52611b6d565b5060010190565b600082611b6857611b68611b83565b500690565b634e487b7160e01b600052601160045260246000fd5b634e487b7160e01b600052601260045260246000fd5b634e487b7160e01b600052603260045260246000fd5b634e487b7160e01b600052604160045260246000fd5b600060033d1115611bde5760046000803e5060005160e01c5b90565b600060443d1015611bef5790565b6040516003193d81016004833e81513d67ffffffffffffffff8160248401118184111715611c1f57505050505090565b8285019150815181811115611c375750505050505090565b843d8701016020828501011115611c515750505050505090565b611c6060208286010187611b11565b509095945050505050565b6001600160e01b03198116811461088457600080fdfea2646970667358221220762717f8700f8a78bc8ea911ad36607e17c585d5d34d30553af4ccd22859f91c64736f6c63430008070033",
    "linkReferences": {}
  }
}